:020000040000FA
:020000001028C6
:100020008312031386100611831603130615861018
:1000300083120313212071203C2006198614861098
:100040000800252037201F152E208316031380302B
:100050009F008312031345309F0008001F192E28AC
:1000600083121E08A00083161E088312A1001430FC
:10007000A200A20B392808003F20492078208316CF
:1000800003138801861206120611861083120313C9
:100090000800A601A5011030A40003105428A80DE3
:1000A000A60DA50DA40B54283330A607A619F039C8
:1000B000A61B0F39A6023330A507A519F039A51BD9
:1000C0000F39A502A10DA00DA60DA50DA70DA40B1E
:1000D00054282608F039A700A70E26080F39A600D5
:1000E00008002108BA20A1002008E722A00008008B
:1000F000880186120612061186102508AC20880099
:100100008616972086122708AC20880006169720AE
:1001100006122608AC208800081406159720061140
:100120000130AC2088008614972086107828F9309A
:10013000A200A300A20B9A28A30B9C2808000F3052
:100140009E05AC20861697208612F0309E05AC20C6
:1001500006169720061208008207FC340C34DA34A5
:10016000F2346634B634BE34E034FE34F6346C34E3
:1001700002341C3482079534963497349834993479
:100180009A349B349C349D349E349F34A034A134E3
:10019000A234A334A434A534A634A734A834A93493
:1001A000AA34AB34AC34AD34AE34AF34B034B13443
:1001B000B234B334B434B534B634B734B834B934F3
:1001C000BA34BB34BC34BD34BE34BF34C034C134A3
:1001D000C234C334C434C534C634C734C834C93453
:1001E000CA34CB34CC34CD34CE34CF34D034D13403
:1001F000D234D334D434D534D634D734D834D934B3
:10020000DA34DB34DC34DD34DE34DF34E034E13462
:10021000E234E334E434E534E634E734E834E93412
:10022000EA34EB34EC34ED34EE34EF34F034F134C2
:10023000F234F334F434F534F634F734F834F93472
:10024000FA34FB34FC34FD34FE34FF340034013422
:1002500002340334043405340634073408340934D2
:100260000A340B340C340D340E340F341034113482
:100270001234133414341534163417341834193432
:100280001A341B341C341D341E341F3420342134E2
:100290002234233424342534263427342834293492
:1002A0002A342B342C342D342E342F343034313442
:1002B00032343334343435343634373438343934F2
:1002C0003A343B343C343D343E343F3440344134A2
:1002D0004234433444344534463447344834493452
:1002E0004A344B344C344D344E344F345034513402
:1002F00052345334543455345634573458345934B2
:100300005A345B345C345D345E345F346034613461
:100310006234633464346534663467346834693411
:100320006A346B346C346D346E346F3470347134C1
:100330007234733474347534763477347834793471
:100340007A347B347C347D347E347F348034813421
:1003500082348334843485348634873488348934D1
:100360008A348B348C348D348E348F349034913481
:100370009234933494349534963497349834993431
:100380009A349B349C349D349E349F34A034A134E1
:10039000A234A334A434A534A634A734A834A93491
:1003A000AA34AB34AC34AD34AE34AF34B034B13441
:1003B000B234B334B434B534B634B734B834B934F1
:1003C000BA34BB34BC34BD34BE34BF34C034C134A1
:1003D000C234C334C434C534C634C734C834C93451
:1003E000CA34CB34CC34CD34CE34CF34D034D13401
:1003F000D234D334D434D534D634D734D834D934B1
:10040000DA34DB34DC34DD34DE34DF34E034E13460
:10041000E234E334E434E534E634E734E834E93410
:10042000EA34EB34EC34ED34EE34EF34F034F134C0
:10043000F234F334F434F534F634F734F834F93470
:10044000FA34FB34FC34FD34FE34FF340034013420
:1004500002340334043405340634073408340934D0
:100460000A340B340C340D340E340F341034113480
:100470001234133414341534163417341834193430
:100480001A341B341C341D341E341F3420342134E0
:100490002234233424342534263427342834293490
:1004A0002A342B342C342D342E342F343034313440
:1004B00032343334343435343634373438343934F0
:1004C0003A343B343C343D343E343F3440344134A0
:1004D0004234433444344534463447344834493450
:1004E0004A344B344C344D344E344F345034513400
:1004F00052345334543455345634573458345934B0
:100500005A345B345C345D345E345F34603461345F
:10051000623463346434653466346734683469340F
:100520006A346B346C346D346E346F3470347134BF
:10053000723473347434753476347734783479346F
:100540007A347B347C347D347E347F34803481341F
:1005500082348334843485348634873488348934CF
:100560008A348B348C348D348E348F34903491347F
:10057000923493349434953496349734983499342F
:100580009A349B349C349D349E349F34A034A134DF
:10059000A234A334A434A534A634A734A834A9348F
:1005A000AA34AB34AC34AD34AE34AF34B034B1343F
:1005B000B234B334B434B534B634B734B834B934EF
:1005C000BA34BB34BC34BD34BE34BF34C03482070B
:1005D0000134013401340134013401340134013473
:1005E0000134013401340134013401340134013463
:1005F0000134013401340134013401340134013453
:100600000134013401340134013401340134013442
:100610000134013401340134013401340134013432
:100620000134013401340134013401340134013422
:100630000134013401340134013401340134013412
:100640000134013401340134013401340134013402
:1006500001340134013401340134013401340134F2
:1006600001340134013401340134013401340134E2
:1006700001340134013401340134013401340134D2
:1006800001340134013401340134013401340134C2
:1006900001340134013401340134013401340134B2
:1006A000013401340134023402340234023402349D
:1006B000023402340234023402340234023402348A
:1006C000023402340234023402340234023402347A
:1006D000023402340234023402340234023402346A
:1006E000023402340234023402340234023402345A
:1006F000023402340234023402340234023402344A
:100700000234023402340234023402340234023439
:100710000234023402340234023402340234023429
:100720000234023402340234023402340234023419
:100730000234023402340234023402340234023409
:1007400002340234023402340234023402340234F9
:1007500002340234023402340234023402340234E9
:1007600002340234023402340234023402340234D9
:1007700002340234023402340234023402340234C9
:1007800002340234023402340234023402340234B9
:1007900002340234023402340234023402340234A9
:1007A0000234023402340234023402340234023499
:1007B0000234023402340234023402340234023489
:1007C0000234023402340234023402340234023479
:1007D0000234023402340234023402340234023469
:1007E0000234023402340234023402340234023459
:1007F0000234023402340234023402340234023449
:100800000234023402340234023402340234023438
:100810000234023402340234023402340234023428
:100820000234023402340234023402340234023418
:100830000234023402340234023402340234023408
:1008400002340234023402340234023402340234F8
:1008500002340234023402340234023402340234E8
:1008600002340234023402340234023402340234D8
:1008700002340234023402340234023402340234C8
:1008800002340234023402340234023402340234B8
:1008900002340234023402340234023402340234A8
:1008A0000234023402340334033403340334033493
:1008B0000334033403340334033403340334033480
:1008C0000334033403340334033403340334033470
:1008D0000334033403340334033403340334033460
:1008E0000334033403340334033403340334033450
:1008F0000334033403340334033403340334033440
:10090000033403340334033403340334033403342F
:10091000033403340334033403340334033403341F
:10092000033403340334033403340334033403340F
:1009300003340334033403340334033403340334FF
:1009400003340334033403340334033403340334EF
:1009500003340334033403340334033403340334DF
:1009600003340334033403340334033403340334CF
:1009700003340334033403340334033403340334BF
:1009800003340334033403340334033403340334AF
:10099000033403340334033403340334033403349F
:1009A000033403340334033403340334033403348F
:1009B000033403340334033403340334033403347F
:1009C000033403340334033403340334033403346F
:1009D000033403340334033403340334033403345F
:1009E000033403340334033403340334033403344F
:1009F000033403340334033403340334033403343F
:100A0000033403340334033403340334033403342E
:100A1000033403340334033403340334033403341E
:080A20000334033403340334F2
:00000001FF
